{
  "address": "0x6D07Fee70a994c7eadde02E14A43B7cdd6f6E9d2",
  "abi": [
    {
      "inputs": [
        {
          "internalType": "uint256",
          "name": "price",
          "type": "uint256"
        }
      ],
      "name": "ListingPriceNotPaid",
      "type": "error"
    },
    {
      "inputs": [],
      "name": "ListingPriceNotProvided",
      "type": "error"
    },
    {
      "inputs": [],
      "name": "NftAlreadyListed",
      "type": "error"
    },
    {
      "inputs": [],
      "name": "NftNotApprovedForMarketplace",
      "type": "error"
    },
    {
      "inputs": [],
      "name": "NftNotListed",
      "type": "error"
    },
    {
      "inputs": [],
      "name": "NoProceedsToWithdraw",
      "type": "error"
    },
    {
      "inputs": [],
      "name": "NotOwnerOfNft",
      "type": "error"
    },
    {
      "inputs": [],
      "name": "WithdrawProceedsFailed",
      "type": "error"
    },
    {
      "anonymous": false,
      "inputs": [
        {
          "indexed": true,
          "internalType": "address",
          "name": "nftAddress",
          "type": "address"
        },
        {
          "indexed": true,
          "internalType": "uint256",
          "name": "nftId",
          "type": "uint256"
        },
        {
          "indexed": false,
          "internalType": "uint256",
          "name": "price",
          "type": "uint256"
        },
        {
          "indexed": false,
          "internalType": "address",
          "name": "seller",
          "type": "address"
        }
      ],
      "name": "ListingUpdated",
      "type": "event"
    },
    {
      "anonymous": false,
      "inputs": [
        {
          "indexed": true,
          "internalType": "address",
          "name": "nftAddress",
          "type": "address"
        },
        {
          "indexed": true,
          "internalType": "uint256",
          "name": "nftId",
          "type": "uint256"
        },
        {
          "indexed": false,
          "internalType": "uint256",
          "name": "price",
          "type": "uint256"
        },
        {
          "indexed": false,
          "internalType": "address",
          "name": "buyer",
          "type": "address"
        }
      ],
      "name": "NftBought",
      "type": "event"
    },
    {
      "anonymous": false,
      "inputs": [
        {
          "indexed": true,
          "internalType": "address",
          "name": "nftAddress",
          "type": "address"
        },
        {
          "indexed": true,
          "internalType": "uint256",
          "name": "nftId",
          "type": "uint256"
        },
        {
          "indexed": false,
          "internalType": "uint256",
          "name": "price",
          "type": "uint256"
        },
        {
          "indexed": false,
          "internalType": "address",
          "name": "seller",
          "type": "address"
        }
      ],
      "name": "NftListed",
      "type": "event"
    },
    {
      "anonymous": false,
      "inputs": [
        {
          "indexed": true,
          "internalType": "address",
          "name": "nftAddress",
          "type": "address"
        },
        {
          "indexed": true,
          "internalType": "uint256",
          "name": "nftId",
          "type": "uint256"
        }
      ],
      "name": "NftUnlisted",
      "type": "event"
    },
    {
      "inputs": [
        {
          "internalType": "address",
          "name": "nftAddress",
          "type": "address"
        },
        {
          "internalType": "uint256",
          "name": "nftId",
          "type": "uint256"
        }
      ],
      "name": "buyNft",
      "outputs": [],
      "stateMutability": "payable",
      "type": "function"
    },
    {
      "inputs": [
        {
          "internalType": "address",
          "name": "nftAddress",
          "type": "address"
        },
        {
          "internalType": "uint256",
          "name": "nftId",
          "type": "uint256"
        },
        {
          "internalType": "uint256",
          "name": "price",
          "type": "uint256"
        }
      ],
      "name": "listNft",
      "outputs": [],
      "stateMutability": "nonpayable",
      "type": "function"
    },
    {
      "inputs": [
        {
          "internalType": "address",
          "name": "",
          "type": "address"
        },
        {
          "internalType": "uint256",
          "name": "",
          "type": "uint256"
        }
      ],
      "name": "listingByNftIdByNftAddress",
      "outputs": [
        {
          "internalType": "uint256",
          "name": "price",
          "type": "uint256"
        },
        {
          "internalType": "address",
          "name": "seller",
          "type": "address"
        },
        {
          "internalType": "bool",
          "name": "isOpen",
          "type": "bool"
        }
      ],
      "stateMutability": "view",
      "type": "function"
    },
    {
      "inputs": [],
      "name": "numberOfListings",
      "outputs": [
        {
          "internalType": "uint256",
          "name": "",
          "type": "uint256"
        }
      ],
      "stateMutability": "view",
      "type": "function"
    },
    {
      "inputs": [
        {
          "internalType": "address",
          "name": "",
          "type": "address"
        }
      ],
      "name": "proceeds",
      "outputs": [
        {
          "internalType": "uint256",
          "name": "",
          "type": "uint256"
        }
      ],
      "stateMutability": "view",
      "type": "function"
    },
    {
      "inputs": [
        {
          "internalType": "address",
          "name": "nftAddress",
          "type": "address"
        },
        {
          "internalType": "uint256",
          "name": "nftId",
          "type": "uint256"
        }
      ],
      "name": "unlistNft",
      "outputs": [],
      "stateMutability": "nonpayable",
      "type": "function"
    },
    {
      "inputs": [
        {
          "internalType": "address",
          "name": "nftAddress",
          "type": "address"
        },
        {
          "internalType": "uint256",
          "name": "nftId",
          "type": "uint256"
        },
        {
          "internalType": "uint256",
          "name": "price",
          "type": "uint256"
        }
      ],
      "name": "updateListing",
      "outputs": [],
      "stateMutability": "nonpayable",
      "type": "function"
    },
    {
      "inputs": [],
      "name": "withdrawProceeds",
      "outputs": [],
      "stateMutability": "nonpayable",
      "type": "function"
    }
  ],
  "transactionHash": "0x1c0b965ac082b6cf0081db7b567c19dd6f47d22a6e1ec5e5cf918ddc93b83990",
  "args": [],
  "numDeployments": 3,
  "solcInputHash": "7ae7a3cd12c28c99dc6d785be2ed584d",
  "bytecode": "0x60806040526000805534801561001457600080fd5b5061153a806100246000396000f3fe60806040526004361061007b5760003560e01c80639038e6931161004e5780639038e69314610141578063c922b17c14610158578063e0ba5b4414610181578063f772adf1146101ac5761007b565b80632c60f7ed1461008057806335adde54146100bf5780634ddf4f8f146100fc57806354e6448e14610118575b600080fd5b34801561008c57600080fd5b506100a760048036038101906100a291906111ce565b6101d5565b6040516100b693929190611247565b60405180910390f35b3480156100cb57600080fd5b506100e660048036038101906100e1919061127e565b610239565b6040516100f391906112ab565b60405180910390f35b610116600480360381019061011191906111ce565b610251565b005b34801561012457600080fd5b5061013f600480360381019061013a91906111ce565b610656565b005b34801561014d57600080fd5b506101566107d9565b005b34801561016457600080fd5b5061017f600480360381019061017a91906112c6565b610984565b005b34801561018d57600080fd5b50610196610d8d565b6040516101a391906112ab565b60405180910390f35b3480156101b857600080fd5b506101d360048036038101906101ce91906112c6565b610d93565b005b6001602052816000526040600020602052806000526040600020600091509150508060000154908060010160009054906101000a900473ffffffffffffffffffffffffffffffffffffffff16908060010160149054906101000a900460ff16905083565b60026020528060005260406000206000915090505481565b81816000600160008473ffffffffffffffffffffffffffffffffffffffff1673ffffffffffffffffffffffffffffffffffffffff168152602001908152602001600020600083815260200190815260200160002060000154036102e0576040517f503620e200000000000000000000000000000000000000000000000000000000815260040160405180910390fd5b8383346000600160008573ffffffffffffffffffffffffffffffffffffffff1673ffffffffffffffffffffffffffffffffffffffff16815260200190815260200160002060008481526020019081526020016000206000015490508082101561038057806040517f05b4fea600000000000000000000000000000000000000000000000000000000815260040161037791906112ab565b60405180910390fd5b600033905060008990506000600160008c73ffffffffffffffffffffffffffffffffffffffff1673ffffffffffffffffffffffffffffffffffffffff16815260200190815260200160002060008b8152602001908152602001600020604051806060016040529081600082015481526020016001820160009054906101000a900473ffffffffffffffffffffffffffffffffffffffff1673ffffffffffffffffffffffffffffffffffffffff1673ffffffffffffffffffffffffffffffffffffffff1681526020016001820160149054906101000a900460ff1615151515815250509050806000015160026000836020015173ffffffffffffffffffffffffffffffffffffffff1673ffffffffffffffffffffffffffffffffffffffff16815260200190815260200160002060008282546104bb9190611348565b925050819055506104cc8b8b611041565b898b73ffffffffffffffffffffffffffffffffffffffff167f25f40edf7c819e0e06596468099c693df51e8756111ca329f5e0d66f4e54171c83600001518660405161051992919061137c565b60405180910390a38173ffffffffffffffffffffffffffffffffffffffff166342842e0e8260200151858d6040518463ffffffff1660e01b8152600401610562939291906113a5565b600060405180830381600087803b15801561057c57600080fd5b505af1158015610590573d6000803e3d6000fd5b505050508273ffffffffffffffffffffffffffffffffffffffff168273ffffffffffffffffffffffffffffffffffffffff16636352211e8c6040518263ffffffff1660e01b81526004016105e491906112ab565b602060405180830381865afa158015610601573d6000803e3d6000fd5b505050506040513d601f19601f8201168201806040525081019061062591906113f1565b73ffffffffffffffffffffffffffffffffffffffff16146106495761064861141e565b5b5050505050505050505050565b8181338073ffffffffffffffffffffffffffffffffffffffff168373ffffffffffffffffffffffffffffffffffffffff16636352211e846040518263ffffffff1660e01b81526004016106a991906112ab565b602060405180830381865afa1580156106c6573d6000803e3d6000fd5b505050506040513d601f19601f820116820180604052508101906106ea91906113f1565b73ffffffffffffffffffffffffffffffffffffffff1614610737576040517f625e0d0d00000000000000000000000000000000000000000000000000000000815260040160405180910390fd5b84846000600160008473ffffffffffffffffffffffffffffffffffffffff1673ffffffffffffffffffffffffffffffffffffffff168152602001908152602001600020600083815260200190815260200160002060000154036107c6576040517f503620e200000000000000000000000000000000000000000000000000000000815260040160405180910390fd5b6107d08787611041565b50505050505050565b336000600260008373ffffffffffffffffffffffffffffffffffffffff1673ffffffffffffffffffffffffffffffffffffffff1681526020019081526020016000205403610853576040517fba414ce800000000000000000000000000000000000000000000000000000000815260040160405180910390fd5b6000600260003373ffffffffffffffffffffffffffffffffffffffff1673ffffffffffffffffffffffffffffffffffffffff1681526020019081526020016000205490506000600260003373ffffffffffffffffffffffffffffffffffffffff1673ffffffffffffffffffffffffffffffffffffffff1681526020019081526020016000208190555060003373ffffffffffffffffffffffffffffffffffffffff16826040516109029061147e565b60006040518083038185875af1925050503d806000811461093f576040519150601f19603f3d011682016040523d82523d6000602084013e610944565b606091505b505090508061097f576040517f0ca5b23000000000000000000000000000000000000000000000000000000000815260040160405180910390fd5b505050565b80600081036109bf576040517fc78a11b000000000000000000000000000000000000000000000000000000000815260040160405180910390fd5b8383338073ffffffffffffffffffffffffffffffffffffffff168373ffffffffffffffffffffffffffffffffffffffff16636352211e846040518263ffffffff1660e01b8152600401610a1291906112ab565b602060405180830381865afa158015610a2f573d6000803e3d6000fd5b505050506040513d601f19601f82011682018060405250810190610a5391906113f1565b73ffffffffffffffffffffffffffffffffffffffff1614610aa0576040517f625e0d0d00000000000000000000000000000000000000000000000000000000815260040160405180910390fd5b86863073ffffffffffffffffffffffffffffffffffffffff168273ffffffffffffffffffffffffffffffffffffffff1663081812fc836040518263ffffffff1660e01b8152600401610af291906112ab565b602060405180830381865afa158015610b0f573d6000803e3d6000fd5b505050506040513d601f19601f82011682018060405250810190610b3391906113f1565b73ffffffffffffffffffffffffffffffffffffffff1614610b80576040517f7194c82a00000000000000000000000000000000000000000000000000000000815260040160405180910390fd5b8888600160008373ffffffffffffffffffffffffffffffffffffffff1673ffffffffffffffffffffffffffffffffffffffff168152602001908152602001600020600082815260200190815260200160002060010160149054906101000a900460ff1615610c1a576040517f95b46a0a00000000000000000000000000000000000000000000000000000000815260040160405180910390fd5b600033905060405180606001604052808b81526020018273ffffffffffffffffffffffffffffffffffffffff16815260200160011515815250600160008e73ffffffffffffffffffffffffffffffffffffffff1673ffffffffffffffffffffffffffffffffffffffff16815260200190815260200160002060008d81526020019081526020016000206000820151816000015560208201518160010160006101000a81548173ffffffffffffffffffffffffffffffffffffffff021916908373ffffffffffffffffffffffffffffffffffffffff16021790555060408201518160010160146101000a81548160ff021916908315150217905550905050600080815480929190610d2990611493565b91905055508a8c73ffffffffffffffffffffffffffffffffffffffff167f48645976acd1c1a4bc2322dfceba4fbb73dc23084fdced0c30d08e0426cfb6d08c84604051610d7792919061137c565b60405180910390a3505050505050505050505050565b60005481565b8060008103610dce576040517fc78a11b000000000000000000000000000000000000000000000000000000000815260040160405180910390fd5b8383338073ffffffffffffffffffffffffffffffffffffffff168373ffffffffffffffffffffffffffffffffffffffff16636352211e846040518263ffffffff1660e01b8152600401610e2191906112ab565b602060405180830381865afa158015610e3e573d6000803e3d6000fd5b505050506040513d601f19601f82011682018060405250810190610e6291906113f1565b73ffffffffffffffffffffffffffffffffffffffff1614610eaf576040517f625e0d0d00000000000000000000000000000000000000000000000000000000815260040160405180910390fd5b86866000600160008473ffffffffffffffffffffffffffffffffffffffff1673ffffffffffffffffffffffffffffffffffffffff16815260200190815260200160002060008381526020019081526020016000206000015403610f3e576040517f503620e200000000000000000000000000000000000000000000000000000000815260040160405180910390fd5b60003390506000600160008c73ffffffffffffffffffffffffffffffffffffffff1673ffffffffffffffffffffffffffffffffffffffff16815260200190815260200160002060008b81526020019081526020016000209050888160000181905550818160010160006101000a81548173ffffffffffffffffffffffffffffffffffffffff021916908373ffffffffffffffffffffffffffffffffffffffff160217905550898b73ffffffffffffffffffffffffffffffffffffffff167f3199bfdff711ec1ab8ab8449dc3b8d3fa30a59861a734a9d26f7b1a38162df758b8560405161102c92919061137c565b60405180910390a35050505050505050505050565b600160008373ffffffffffffffffffffffffffffffffffffffff1673ffffffffffffffffffffffffffffffffffffffff16815260200190815260200160002060008281526020019081526020016000206000808201600090556001820160006101000a81549073ffffffffffffffffffffffffffffffffffffffff02191690556001820160146101000a81549060ff021916905550506000808154809291906110e9906114db565b9190505550808273ffffffffffffffffffffffffffffffffffffffff167e38f3e47004950b890d9df255df5e1b6921cf589f4b44b2259df5009593666460405160405180910390a35050565b600080fd5b600073ffffffffffffffffffffffffffffffffffffffff82169050919050565b60006111658261113a565b9050919050565b6111758161115a565b811461118057600080fd5b50565b6000813590506111928161116c565b92915050565b6000819050919050565b6111ab81611198565b81146111b657600080fd5b50565b6000813590506111c8816111a2565b92915050565b600080604083850312156111e5576111e4611135565b5b60006111f385828601611183565b9250506020611204858286016111b9565b9150509250929050565b61121781611198565b82525050565b6112268161115a565b82525050565b60008115159050919050565b6112418161122c565b82525050565b600060608201905061125c600083018661120e565b611269602083018561121d565b6112766040830184611238565b949350505050565b60006020828403121561129457611293611135565b5b60006112a284828501611183565b91505092915050565b60006020820190506112c0600083018461120e565b92915050565b6000806000606084860312156112df576112de611135565b5b60006112ed86828701611183565b93505060206112fe868287016111b9565b925050604061130f868287016111b9565b9150509250925092565b7f4e487b7100000000000000000000000000000000000000000000000000000000600052601160045260246000fd5b600061135382611198565b915061135e83611198565b925082820190508082111561137657611375611319565b5b92915050565b6000604082019050611391600083018561120e565b61139e602083018461121d565b9392505050565b60006060820190506113ba600083018661121d565b6113c7602083018561121d565b6113d4604083018461120e565b949350505050565b6000815190506113eb8161116c565b92915050565b60006020828403121561140757611406611135565b5b6000611415848285016113dc565b91505092915050565b7f4e487b7100000000000000000000000000000000000000000000000000000000600052600160045260246000fd5b600081905092915050565b50565b600061146860008361144d565b915061147382611458565b600082019050919050565b60006114898261145b565b9150819050919050565b600061149e82611198565b91507fffffffffffffffffffffffffffffffffffffffffffffffffffffffffffffffff82036114d0576114cf611319565b5b600182019050919050565b60006114e682611198565b9150600082036114f9576114f8611319565b5b60018203905091905056fea2646970667358221220a3c36363829a7fe52f00c5c5b9223bb07356c30d68bfbe22e904e643f784011a64736f6c63430008110033",
  "devdoc": {
    "kind": "dev",
    "methods": {
      "listNft(address,uint256,uint256)": {
        "params": {
          "nftAddress": ": The adress of the NFT contract",
          "nftId": ": The id of the NFT",
          "price": ": The asking price for the NFT"
        }
      }
    },
    "version": 1
  },
  "userdoc": {
    "kind": "user",
    "methods": {
      "listNft(address,uint256,uint256)": {
        "notice": "Lists an NFT on the marketplace"
      }
    },
    "version": 1
  },
  "storageLayout": {
    "storage": [
      {
        "astId": 1638,
        "contract": "contracts/Nifty.sol:Nifty",
        "label": "numberOfListings",
        "offset": 0,
        "slot": "0",
        "type": "t_uint256"
      },
      {
        "astId": 1645,
        "contract": "contracts/Nifty.sol:Nifty",
        "label": "listingByNftIdByNftAddress",
        "offset": 0,
        "slot": "1",
        "type": "t_mapping(t_address,t_mapping(t_uint256,t_struct(Listing)1635_storage))"
      },
      {
        "astId": 1649,
        "contract": "contracts/Nifty.sol:Nifty",
        "label": "proceeds",
        "offset": 0,
        "slot": "2",
        "type": "t_mapping(t_address,t_uint256)"
      }
    ],
    "types": {
      "t_address": {
        "encoding": "inplace",
        "label": "address",
        "numberOfBytes": "20"
      },
      "t_bool": {
        "encoding": "inplace",
        "label": "bool",
        "numberOfBytes": "1"
      },
      "t_mapping(t_address,t_mapping(t_uint256,t_struct(Listing)1635_storage))": {
        "encoding": "mapping",
        "key": "t_address",
        "label": "mapping(address => mapping(uint256 => struct Nifty.Listing))",
        "numberOfBytes": "32",
        "value": "t_mapping(t_uint256,t_struct(Listing)1635_storage)"
      },
      "t_mapping(t_address,t_uint256)": {
        "encoding": "mapping",
        "key": "t_address",
        "label": "mapping(address => uint256)",
        "numberOfBytes": "32",
        "value": "t_uint256"
      },
      "t_mapping(t_uint256,t_struct(Listing)1635_storage)": {
        "encoding": "mapping",
        "key": "t_uint256",
        "label": "mapping(uint256 => struct Nifty.Listing)",
        "numberOfBytes": "32",
        "value": "t_struct(Listing)1635_storage"
      },
      "t_struct(Listing)1635_storage": {
        "encoding": "inplace",
        "label": "struct Nifty.Listing",
        "members": [
          {
            "astId": 1630,
            "contract": "contracts/Nifty.sol:Nifty",
            "label": "price",
            "offset": 0,
            "slot": "0",
            "type": "t_uint256"
          },
          {
            "astId": 1632,
            "contract": "contracts/Nifty.sol:Nifty",
            "label": "seller",
            "offset": 0,
            "slot": "1",
            "type": "t_address"
          },
          {
            "astId": 1634,
            "contract": "contracts/Nifty.sol:Nifty",
            "label": "isOpen",
            "offset": 20,
            "slot": "1",
            "type": "t_bool"
          }
        ],
        "numberOfBytes": "64"
      },
      "t_uint256": {
        "encoding": "inplace",
        "label": "uint256",
        "numberOfBytes": "32"
      }
    }
  }
}